:020000040800F2
:100000009841002079300008450C0008470C000892
:100010004B0C00084F0C0008530C000800000000B7
:10002000000000000000000000000000570C000865
:10003000590C0008000000002FE200080D14000811
:100040009330000893300008933000089330000884
:100050009330000893300008933000089330000874
:100060009330000893300008933000089330000864
:100070009330000893300008933000089330000854
:100080009330000893300008933000089330000844
:100090009330000893300008933000089330000834
:1000A0009330000893300008933000089330000824
:1000B0009330000893300008933000089330000814
:1000C0009330000893300008933000089330000804
:1000D00093300008771B0008B71B00089330000816
:1000E00093300008933000089330000893300008E4
:1000F00093300008933000089330000893300008D4
:1001000093300008933000089330000893300008C3
:1001100093300008F71B0008933000089330000864
:1001200093300008933000089330000893300008A3
:1001300000F002F800F03AF80AA090E8000C8244BF
:100140008344AAF10107DA4501D100F02FF8AFF29C
:10015000090EBAE80F0013F0010F18BFFB1A43F0A5
:100160000103184748E8000068E80000103A24BF7F
:1001700078C878C1FAD8520724BF30C830C144BF0C
:1001800004680C607047000000230024002500264E
:10019000103A28BF78C1FBD8520728BF30C148BFEA
:1001A0000B6070471FB51FBD10B510BD0DF0F5FFFA
:1001B0001146FFF7F7FF00F0B5FC0EF013F803B49B
:1001C000FFF7F2FF03BC01F0C1F900000EB50024F7
:1001D00000BF4EE000BF00BF00BF04F009FE0446B0
:1001E00000BF00BFFE480078401CFD49087000BFFA
:1001F00000BF204604F000FE00BF00BF00BF01F0BA
:100200001AFD01F029FE00BF00BF00BF04F0F0FDA1
:10021000044600BF00BFF2480078401EF049087055
:1002200008460078A0B9EF480088002809DD00BF23
:1002300000BF204604F0E0FD00BF00BF07F098F8C3
:100240000DE000BF00BF204604F0D6FD00BF06E071
:1002500000BF00BF204604F0CFFD00BF00BF00BFBD
:1002600002A8002114230A46CDE9001008460CF02C
:1002700082FFAFE70EB5002400BF4CE000BF00BF17
:1002800000BF04F0B5FD044600BF00BFD4480078AD
:10029000401CD349087000BF00BF204604F0ACFDED
:1002A00000BF00BF00BF01F009FB00BF00BF00BFDF
:1002B00004F09EFD044600BF00BFC9480078401E00
:1002C000C749087008460078A0B9C64800880028C9
:1002D00009DD00BF00BF204604F08EFD00BF00BF57
:1002E00007F046F80DE000BF00BF204604F084FD93
:1002F00000BF06E000BF00BF204604F07DFD00BF48
:1003000000BF00BF02A8002114230A46CDE9001057
:1003100008460CF030FFB1E7B348007801283ED121
:10032000B248007D00F00200022838D1AF48B0F991
:100330000000322833DDAD48B0F90000C8282EDABD
:10034000AA48B0F90200322829DDA848B0F9020015
:10035000C82824DAA548B0F90C00B0F58A7F1EDB66
:10036000A248B0F90C00B0F5917F18DA9F48B0F9B7
:100370001000B0F58A7F12DB9C48B0F91000B0F590
:10038000917F0CDA9948B0F90600782807DA002046
:10039000964988820846808A40F004008882704727
:1003A0000EB500BF0AE0FFF7B7FF02A800210B4619
:1003B0000122CDE9001008460CF0DDFEF3E770B530
:1003C00004460D468A48C07A032803D1052002F06E
:1003D0008AFD0EE08648C07A042803D1062002F088
:1003E00082FD06E08248C07A052802D1072002F08B
:1003F0007AFD70BD70B504460D467D48C07A18B9C7
:10040000022002F070FD16E07948C07A012803D17D
:10041000032002F068FD0EE07548C07A022803D17F
:10042000042002F060FD06E07148C07A062802D17F
:10043000022002F058FD70BD70B505460E466A48B0
:10044000007801283ED16B48C07A28B96A4A012158
:10045000082002F0B7FC35E06648C07A012805D1D3
:10046000654A0121092002F0ADFC2BE06148C07A09
:1004700002280AD1614800880DF06AFF044622462E
:1004800000210A2002F09EFC1CE05A48C07A032892
:1004900005D100221146082002F094FC12E05548D4
:1004A000C07A042805D100221146092002F08AFCF6
:1004B00008E05048C07A052804D1002211460820DF
:1004C00002F080FC4848007818B94A48C07A0028F1
:1004D00005DC4648007D00F04000402835D1454805
:1004E000C07A032805DD00220121082002F06AFC01
:1004F0002BE04048C07A012805D1002201210920C3
:1005000002F060FC21E03B48C07A022805D10022BD
:1005100011460A2002F056FC17E03648C07A03283C
:1005200013D100203349C87201203549086035498C
:10053000C1F8840134490860A1F1040108604FF05A
:1005400000002A4988810882C88070BD274A127D30
:1005500002F01802082A22D0244A928A48F20203A2
:100560001A40022A1BD0214A928A48F220031A40DC
:10057000202A14D01D4A928A02F40142B2F5807FEB
:100580000DD01A4A928A02F40242B2F5007F06D0D8
:10059000164A928A02F40442B2F5806F04D11B4AD3
:1005A0001278521C194B1A70104A928A48F20803AA
:1005B0001A40082A3AD00D4A928A9B1F1A40022AF2
:1005C00034D00A4A928A48F220031A40202A2DD0B9
:1005D000064A928A02F40142B2F5807F26D017E0E3
:1005E000B80000207C0000200000002042170020FE
:1005F00068150020381500206666E24120000020C2
:100600008801234200002342AC0123420100002064
:10061000FE4A928A02F40242B2F5007F06D0FB4AFB
:10062000928A02F40442B2F5806F57D1F84A1278E8
:10063000022A53D10022F64B1A70F44A928A48F2E9
:1006400008031A40082A05D1F04A928A1A43EF4B50
:100650009A825CE0ED4A928A48F202031A40022A2A
:1006600005D1EA4A928A1A43E84B9A824FE0E74A58
:10067000928A48F220031A40202A05D1E34A928A3E
:100680001A43E24B9A8242E0E04A928A02F4014223
:10069000B2F5807F06D1DD4A928A42F40142DB4BFB
:1006A0009A8234E0D94A928A02F40242B2F5007F7B
:1006B00006D1D64A928A42F40242D44B9A8226E06C
:1006C000D24A928A02F40442B2F5806F1FD1CF4A17
:1006D000928A42F40442CD4B9A8218E0CB4A928A25
:1006E00048F208031A409A4211D1CA4AD288C84B2C
:1006F0001B789A420BD10022C54B1A70C34B9A82C9
:100700001A46928A48F218031A43C04B9A827047DD
:10071000C14A127A22B1C04A527A0A32BE4B5A7288
:10072000BD4AD28822B1BC4AD2880A3ABA4BDA8092
:10073000BA4A127A22B1B94A527A0A32B74B5A727D
:10074000B64AD28822B1B54AD2880A3AB34BDA8087
:10075000B34A127A22B1B24A527A0A32B04B5A7272
:10076000AF4AD28822B1AE4AD2880A3AAC4BDA807C
:10077000704730B58BB00446002500BF04F0FCF98B
:100780000AA80AF081F90AAA0121084606F0F9F937
:100790000AA80021AFF287020223CDE90032CDE999
:1007A000021001230A469FA1A0480CF022FF0AA8CC
:1007B0000021AFF267220223CDE90032CDE9021019
:1007C00064230A469AA19C480CF013FF0AA8002152
:1007D000AFF29B320223CDE90032CDE9021064234F
:1007E0000A4696A197480CF004FF0AA80021AFF230
:1007F000FB320223CDE90032CDE9021019230A466B
:1008000091A193480CF0F5FE0AA80021AFF25142E5
:100810000223CDE90032CDE9021064230A468DA1FE
:100820008E480CF0E6FE0AA980480DF0C0F80AA92F
:1008300081480DF0BCF80AA982480DF0B8F80AA961
:1008400083480DF0B4F80AA984480DF0B0F800BF51
:1008500000BF00BF04F0CCFA054600BF00BF8048CF
:100860000078401C7E49087000BF00BF284604F095
:10087000C3FA00BF00BF00BF0AA8032100220592EF
:10088000CDE90621089010464FF480711922754B6E
:10089000CDE90132CDE9031009200023AFF2FF4278
:1008A00071A1009073480AF0CBFC0AA80321002232
:1008B0000592CDE90621089010464FF48071192267
:1008C0006D4BCDE90132CDE9031004200023AFF2D6
:1008D0005B626AA100906E480AF0B2FC0AA803218C
:1008E00000220592CDE90621089010464FF4807150
:1008F0001922684BCDE90132CDE903100520002310
:10090000AFF2377264A1009068480AF099FC00BF0A
:1009100000BF00BF04F06CFA054600BF00BF50489E
:100920000078401E4E49087008460078A0B960481B
:100930000088002809DD00BF00BF284604F05CFAEB
:1009400000BF00BF06F014FD0DE000BF00BF284649
:1009500004F052FA00BF06E000BF00BF284604F0D2
:100960004BFA00BF00BF00BF0AA952480BF0D8FFE6
:100970000BB030BD00B585B0142168460DF0E2FB28
:1009800014220021684600F088FB9DF80000FF2833
:100990000AD105201F49088064204880782088807B
:1009A0003C20C880088127E09DF801009DF80010D8
:1009B00000EB0120174908809DF803009DF8021004
:1009C00000EB0120134948809DF805009DF80410B4
:1009D00000EB01200F4988809DF807009DF8061064
:1009E00000EB01200B49C8809DF809009DF8081014
:1009F00000EB0120074908819DF80A00FF2864D117
:100A00004FF4FA602C490880642057E04217002018
:100A10000100002058170020381500205015002034
:100A200068150020746D723100000000341400203D
:100A3000746D72320000000068140020746D72330F
:100A4000000000009C140020746D7234000000004F
:100A5000D0140020746D72350000000004150020D1
:100A6000B8000020341000206C656430207461737D
:100A70006B000000700F0020A80600205541525462
:100A80002053656E6464617461207461736B00004F
:100A9000E4050020700B002055415254205265633C
:100AA00064617461207461736B000000A80A002007
:100AB0007C000020200100206217002048804FF4B5
:100AC00096708880C880088127E09DF80B009DF80B
:100AD0000A1000EB0120524908809DF80D009DF896
:100AE0000C1000EB01204E4948809DF80F009DF846
:100AF0000E1000EB01204A4988809DF811009DF8F6
:100B0000101000EB01204649C8809DF813009DF8A5
:100B1000121000EB012042490881012041498882DE
:100B200005B000BD8AB0002400F07CFC4FF4A0604A
:100B300002F0C2FA00F0D0FE00F033FF00F07CF9C2
:100B4000C82000F0F9FB00F00EFA00BF00F08EFAAA
:100B50000028FBD1FFF70EFF09A805F0E3FD00BF59
:100B600000BF00BF04F044F9044600BF00BF2E4898
:100B70000078401C2C49087000BF00BF204604F0DC
:100B80003BF900BF00BF00BF09A803210022059266
:100B9000CDE90621089010464FF480711922234BAD
:100BA000CDE90132CDE9031003200023AFF23D422D
:100BB0001FA1009021480AF043FB00BF00BF00BF07
:100BC00004F016F9044600BF00BF17480078401E25
:100BD0001549087008460078A0B91948008800280F
:100BE00009DD00BF00BF204604F006F900BF00BFCA
:100BF00006F0BEFB0DE000BF00BF204604F0FCF88D
:100C000000BF06E000BF00BF204604F0F5F800BFBB
:100C100000BF00BF09A806F054F800BFFEE70000BF
:100C20006217002042170020B8000020E4010020D5
:100C30007374617274207461736B00002001002072
:100C40007C000020704700BFFEE700BFFEE700BF4A
:100C5000FEE700BFFEE77047704700000CB50020BC
:100C6000019000906B48006840F48030694908604A
:100C700000BF6848006800F4003000900198401CF4
:100C80000190009818B90198B0F5A06FF1D16148B2
:100C9000006810F4003F02D00120009001E0002025
:100CA00000900098012842D15B48006840F0100095
:100CB000594908600846006820F0030008600846AB
:100CC000006840F00200086052484068514948609E
:100CD0000846406848600846406840F480604860C4
:100CE0000846406820F47C1048600846406840F49C
:100CF000E81048600846006840F08070086000BF57
:100D00004448006810F0007FFAD04248406820F064
:100D10000300404948600846406840F002004860CF
:100D200000BF3C48406800F00C000828F9D10CBD19
:100D300010B5FFF793FF10BD10B53648006840F0BE
:100D40000100344908600846406834490840314988
:100D5000486008460068324908402E490860084645
:100D6000006820F4802008600846406820F4FE00F7
:100D700048604FF41F008860FFF7DAFF4FF0006013
:100D80002849086010BD10B5002100200022214B29
:100D90005B6803F00C0121B1042906D0082928D191
:100DA00007E0214B214C236027E01F4B1F4C2360A1
:100DB00023E0184B5B6803F47010164B5B6803F478
:100DC0008032022303EB904022B9194B4343174C66
:100DD00023600DE00F4B5B6813F4003F04D0144B0D
:100DE0004343124C236003E00F4B43430F4C2360FB
:100DF00003E00D4B0D4C236000BF00BF054B5B684B
:100E0000C3F303130B4CE15C084B1B68CB40074C4E
:100E1000236010BD00100240002002400000FFF8D7
:100E2000FFFFF6FE08ED00E000127A00040000204B
:100E300000093D000800002008B50121082002F04B
:100E4000C3FE4FF48070ADF8000010208DF8030051
:100E500003208DF802006946044802F0FBF94FF4C4
:100E60008071024802F0A3FA08BD0000000C0140A6
:100E700070B50A46FF23FF2409E010F8015B85EAFC
:100E800003012B4D6D5C85EA04032A4D6C5C150053
:100E9000A2F10106F2B2F0D1274D2B70274D2C7034
:100EA00070BD38B50A46002300210024009403E0F9
:100EB00010F8015BEC18A3B21400A2F10105EAB22C
:100EC000F6D1D9B2CC43641CE1B20C098DF80040D4
:100ED0009DF80040092C06DD9DF800403734E4B24F
:100EE0008DF8004005E09DF800403034E4B28DF804
:100EF000004001F00F048DF801409DF80140092CDD
:100F000006DD9DF801403734E4B28DF8014005E07C
:100F10009DF801403034E4B28DF801409DF8004066
:100F2000074D2C709DF80140064D2C7038BD000017
:100F300002E4000802E50008180000201900002063
:100F40001A0000201B00002007E042F6E06100BF0D
:100F50000A00A1F1010399B2FAD10200A0F1010344
:100F600098B2F2D1704710B500F0C2F810BD70B55C
:100F70000446002600F0D6F82546E11704EB11617F
:100F80000912A02202EB4101C8B200F06FF900F093
:100F900004F9E11704EB11610912A4EB0121C8B2B5
:100FA00000F064F900F0F9F800F0BCF8A12000F0BE
:100FB0005DF900F0F2F8002000F083F9064600F039
:100FC000CFF8304670BD70B504460E4600F0AAF862
:100FD0002546E11704EB11610912A02202EB410141
:100FE000C8B200F043F900F0D8F8E11704EB116142
:100FF0000912A4EB0121C8B200F038F900F0CDF8D5
:10100000304600F033F900F0C8F800F0A9F80A20E3
:10101000FFF79AFF70BD2DE9F04105460E461746D1
:10102000002409E0E20026FA02F2D1B22A1990B2B5
:10103000FFF7C9FF601CC4B2BC42F3DBBDE8F0811E
:101040002DE9F04107460C460026002509E036024E
:101050003919491B491E88B2FFF789FF0644681CED
:10106000C5B2A542F3DB3046BDE8F08110B5FF20E4
:10107000FFF77DFF0446552C01D1002010BD5521FE
:10108000FF20FFF7A0FFFF20FFF771FF0446552C5C
:1010900001D10020F2E70120F0E770B504460E46CA
:1010A000154608E03046721C96B2FFF760FF04F860
:1010B000010B681E85B2002DF4D170BD70B50446D9
:1010C0000D46164606E021782846FFF77CFF681C8F
:1010D00085B2641C3000A6F101018EB2F3D170BD5F
:1010E0000A2000BF0100A0F10102D0B2FAD170477E
:1010F0008B48806940F00800894988618948006808
:1011000020F47F40874908600846006840F44C504E
:10111000086084480830006840F440608149083124
:101120000860704700B57F48006820F470407D4932
:1011300008600846006840F44050086001207A4981
:1011400008607A49C1F8A801FFF7CAFF0020764974
:101150000860FFF7C5FF00207449C1F8A80100BD71
:1011600000B57048006820F470406E490860084679
:10117000006840F44050086000206D4908606B49E9
:10118000C1F8AC01FFF7ACFF01206949086067496D
:10119000C1F8AC01FFF7A4FF00BD00B50023614812
:1011A000006820F470405F4908600846006840F419
:1011B0000040086001205C490860FFF791FF0120B2
:1011C0005A49C1F8A801FFF78BFF07E0581CC3B2CA
:1011D000FA2B03DDFFF7C4FF012000BD554800686E
:1011E0000028F3D15249086000BFF6E700B500209F
:1011F0004F4908604B48006820F470404949086036
:101200000846006840F4405008604FF0000047492D
:10121000C1F8AC01FFF764FF012045490860FFF702
:101220005FFF00204149C1F8A80100BD00B50020C2
:101230003F4908603B48006820F470403949086025
:101240000846006840F4405008604FF001003749FC
:10125000C1F8AC01FFF744FF012035490860FFF7F2
:101260003FFF00203149C1F8A80100BD10B5034679
:101270002C48006820F470402A490860084600683D
:1012800040F440500860002029490860044615E0F9
:10129000D809254908604FEA43604FEA1063FFF719
:1012A0001FFF01202149C1F8A801FFF719FF002005
:1012B0001F490860FFF714FF601CC4B2082CE7DB6D
:1012C00010BD30B5044600231648006820F4704075
:1012D000144908600846006840F400400860002592
:1012E00013E0002012490860FFF7FAFE01200F49C1
:1012F000C1F8A8015806030E0E48006808B1581C32
:10130000C3B2FFF7EDFE681CC5B2082DE9DB14B9C6
:10131000FFF78CFF01E0FFF769FF184630BD0000C2
:1013200000100240040C0140AC81214200802142A7
:10133000A88121422C81214230B589B00546012186
:10134000022002F04EFC0121092002F03DFC0121A7
:10135000214802F04EF82020ADF8200018208DF82A
:10136000230003208DF8220008A91C4801F072FF19
:10137000681E00EBC000C00019490968B1FBF0F419
:10138000A0B2ADF808004720ADF804000020ADF889
:101390000A00ADF8060001A9124802F051FD6020D4
:1013A000ADF810000120ADF812000020ADF81800D3
:1013B0000520B4FBF0F080B2ADF8160004A909488E
:1013C00002F0BDFD0821074803F0CFF901210548CF
:1013D00003F092F909B030BD00081A00000C01407A
:1013E000040000200004004008B5684605F0EEFA4D
:1013F00008BD08B5684605F033FB08BD38B504469E
:101400006A46082120460BF031FE38BD10B5484829
:101410000078012805D105F01BFA0CF0B3F805F0AF
:1014200028FA10BD10B56FF0040001F095FE414898
:1014300000684149B0FBF1F0404908703D48006840
:101440003D49B0FBF1F43E480068C910B1FBF0F033
:1014500044433B4800684FF47A71B1FBF0F03949DE
:1014600008804FF0E020006940F002004FF0E021DA
:10147000086108464461006940F00100086110BD40
:101480002DE9F047074600264FF0E020D0F81490F1
:101490002A48007807FB00F800BFFFF7A5FF4FF0D0
:1014A000E020856911E04FF0E0208469AC420CD067
:1014B000AC4202D2281B064403E0A9EB04002844F6
:1014C00006442546464500D300E0ECE700BFFFF7A1
:1014D00090FFBDE8F08770B50446002504E04FF4A6
:1014E0007A70FFF7CDFF6D1CA542F8D370BD70B5C3
:1014F00004460F480078A0B11348007888B9114815
:101500000088844206DB0F48008894FBF0F52846EB
:10151000FFF774FF0B48008894FBF0F100FB1140CB
:1015200084B24FF47A7104FB01F0FFF7A9FF70BD9C
:10153000710000200400002000127A001C0000202E
:10154000FCE700081E00002070000020014600BFDC
:10155000704700BFFE4A128812F0400FFAD0C2B2A4
:10156000FB4B1B1D1A80704710B51420F949C88029
:10157000084640690178F84802F0F4F80120F5497E
:101580004880012240F22771F34802F08AF810BD2A
:1015900010B5F148008810F0800F23D01420ED49D9
:1015A000C88008464088898888420EDB0020E949C7
:1015B00088800A20C880002008744861002240F218
:1015C0002771E54802F06DF810BDE2484069E14A34
:1015D0005288815CE04802F0C5F8DE484088401C33
:1015E000DC49488000BFEFE770B5DB48008810F0A9
:1015F000200F18D00120D749087200204872D64821
:1016000002F0B4F80446E5B2D2480188D348455404
:10161000D0480088401CCF490880084600883228FE
:1016200001DB0020088070BDCA48407A142814DB12
:101630000020C8490872487208460088322802DD36
:10164000002008807047C3480088C249C881002034
:10165000088001208872C148486100BFF2E710B5D8
:10166000BC488088322800DD10BDBA48C08840B927
:10167000B848007C452804D15320B6490874FFF7C8
:1016800073FF00BFF0E710B5B54840690178B04876
:1016900002F068F80120B2494880012240F2277127
:1016A000AB4801F0FEFF10BD10B5A948008810F04E
:1016B000800F21D0AA484088A949898888420EDB3A
:1016C0000020A749888008740A20C880002048614B
:1016D000002240F227719E4801F0E3FF10BDA048B0
:1016E00040699F4A5288815C994802F03BF89C48C7
:1016F0004088401C9A49488000BFEFE770B5944885
:10170000008810F0200F19D00120954908720020A0
:1017100048728F4802F02AF80446E5B290480188E2
:101720008E48963045548E480088401C8C4908806D
:1017300008460088322801DB0020088070BD8848F8
:10174000407A142815DB0020854908724872084643
:101750000088322802DD0020088070478048008819
:101760007F49C88100200880012088727B4896301C
:10177000486100BFF1E710B579488088322800DD64
:1017800010BD7748C08840B97548007C452804D111
:10179000532073490874FFF776FF00BFF0E710B5D8
:1017A00014207049C8800846406901786E4801F0ED
:1017B000D9FF01206B494880012240F227716A4815
:1017C00001F06FFF10BD10B56748008810F0800F62
:1017D00023D014206349C8800846408889888842FD
:1017E0000EDB00205F49888008740A20C880002032
:1017F0004861002240F227715B4801F052FF10BDA2
:1018000058484069574A5288815C574801F0AAFFFE
:1018100054484088401C5349488000BFEFE770B5EA
:101820005148008810F0200F18D001204D4908724F
:10183000002048724C4801F099FF0446E5B249483F
:1018400001884A48455447480088401C454908805B
:1018500008460088322801DB0020088070BD41481E
:10186000407A142814DB00203E490872487208466A
:101870000088322802DD002008807047394800883F
:101880003849C881002008800120887237484861A3
:1018900000BFF2E710B533488088322800DD10BD64
:1018A0003048C08840B92F48007C452804D15320D7
:1018B0002C490874FFF773FF00BFF0E710B5FFF77E
:1018C000B3FEFFF7CCFEFFF73AFFFFF754FFFFF739
:1018D000C6FFFFF7DFFF10BD08B50121682002F049
:1018E00073F94020ADF8000010208DF803000320AC
:1018F0008DF8020069461E4801F0ACFC40211C48EE
:1019000001F053FD4FF46040ADF8000010208DF859
:10191000030003208DF802006946164801F09AFC86
:101920004FF46041134801F040FD40F65E70ADF8A1
:10193000000010208DF8030003208DF80200694696
:101940000D4801F087FC40F65E710B4816E0000080
:10195000004400403815002000380140B215002036
:10196000501500206815002000500040DE160020B1
:10197000000C0140001401400018014001F015FD69
:1019800041F6FB70ADF8000028208DF80300694691
:10199000FC4801F05FFC41F6FB71FA4801F007FDDD
:1019A00008BD00B587B00121880302F00DF90121BF
:1019B0004FF4901002F015F90121342002F004F9DF
:1019C000F14801F093FD4FF48060ADF8180003205A
:1019D0008DF81A0004208DF81B0006A9EB4801F0D1
:1019E00039FC4FF40070ADF8180018208DF81B007A
:1019F00006A9E64801F02EFC25208DF80400012000
:101A00008DF8050003208DF8060001208DF80700F1
:101A100001A801F056FB4FF4165002904FF480508D
:101A2000ADF80C000020ADF80E004FF48060ADF86A
:101A300010000020ADF814000C20ADF8120002A92F
:101A4000D14801F096FD012240F22551CE4801F027
:101A500028FE0121CC4801F018FECD4801F046FDDA
:101A60000420ADF8180003208DF81A0018208DF816
:101A70001B0006A9C54801F0EDFB0820ADF81800D1
:101A800004208DF81B0006A9C04801F0E3FB2620C6
:101A90008DF8040000208DF8050003208DF8060065
:101AA00001208DF8070001A801F00BFB4FF49640D0
:101AB00002900020ADF80C00ADF80E00ADF810005B
:101AC000ADF814000C20ADF8120002A9B04801F0E6
:101AD00050FD012240F22551AD4801F0E2FD012107
:101AE000AB4801F0D2FDAB4801F000FD4FF480504F
:101AF000ADF8180003208DF81A0018208DF81B008F
:101B000006A9A54801F0A6FB0420ADF818008DF841
:101B10001B0006A99B4801F09DFB35208DF80400B1
:101B200002208DF8050003208DF8060001208DF8B5
:101B3000070001A801F0C5FA4FF4165002900020EA
:101B4000ADF80C00ADF80E00ADF81000ADF81400C3
:101B50000C20ADF8120002A98E4801F00AFD012206
:101B600040F225518B4801F09CFD0121894801F08C
:101B70008CFD07B000BD10B504F06AFE40F225519F
:101B8000814801F073FE30B1FFF72EFD40F2255180
:101B90007D4801F095FE40F227717B4801F066FE1A
:101BA00030B1FFF7F5FC40F22771774801F088FE6D
:101BB00004F05FFE10BD10B504F04AFE40F225515E
:101BC000734801F053FE30B1FFF798FD40F2255104
:101BD0006F4801F075FE40F227716D4801F046FE36
:101BE00030B1FFF761FD40F22771694801F068FEEE
:101BF00004F03FFE10BD10B504F02AFE40F225515E
:101C0000644801F033FE30B1FFF709FE40F2255180
:101C1000604801F055FE40F227715E4801F026FE53
:101C200030B1FFF7D0FD40F227715A4801F048FE6D
:101C300004F01FFE10BD70B5002400255748807ABF
:101C400001284CD100205549887200BF06E0534856
:101C50004069015D52480155601CC4B24F48C089BB
:101C6000A042F4DC4E48643890F86400022802D0A8
:101C70000A2832D11BE04A48643890F866003828B8
:101C800005D04748643890F8660039280ED144489A
:101C9000643890F86A00302808D14148643890F8D8
:101CA0006B00302802D152203C49087316E006250B
:101CB00029463B48FFF7DCF83948405D3949097847
:101CC000884209D13648691C405C37490978884206
:101CD00002D152203149087300E000BF00BF3348F1
:101CE000807A012866D1002030498872002407E0FC
:101CF0002E484069015D2A4896300155601CC4B2E7
:101D00002A48C089A042F3DC2548643890F8FB00DB
:101D1000032804D0052803D0102849D119E000BFBA
:101D2000062529461E489630FFF7A2F81C48963033
:101D3000405D1C49097888420AD119489630691CCF
:101D4000405C19490978884202D15220174908732A
:101D50002FE01125294612489630FFF789F81048E0
:101D60009630405D0F49097888420AD10C48963078
:101D7000691C405C0C490978884202D152200B4909
:101D8000087316E0001401400038014000080140CB
:101D90000044004000500040001001403815002071
:101DA000E415002018000020190000205015002024
:101DB00000BF00BFFE48807A01284CD10020FC49BA
:101DC0008872002406E0FA484069015DF94801552F
:101DD000601CC4B2F648C089A042F4DCF64890F812
:101DE0009001801E062834D2DFE800F003041D05B0
:101DF000060700BF00BF00BF00BF05252946ED480C
:101E0000FFF736F8EB48405DEC490978884209D184
:101E1000E848691C405CEA490978884202D15220AE
:101E2000E349087316E007252946E248FFF720F842
:101E3000E048405DE1490978884209D1DD48691CE4
:101E4000405CDF490978884202D15220D8490873A2
:101E500000E000BF00BF70BD2DE9F84F002400274F
:101E6000A1460025A246002000900026D548007B10
:101E7000522879D10020D3490873CF4890F86400E4
:101E8000022802D00A2870D1E9E0CB4890F8660019
:101E9000382871D1C84890F86900582868D1C648D8
:101EA00090F86C00392807DDC34890F86C0037388B
:101EB000C0B28DF8000006E0BF4890F86C003038E2
:101EC000C0B28DF80000BC4890F86D00392807DDDD
:101ED000B94890F86D003738C0B28DF8010006E0BF
:101EE000B54890F86D003038C0B28DF80100B248A6
:101EF00090F86E00392807DDAF4890F86E0037384B
:101F0000C0B28DF8020006E0AB4890F86E003038A1
:101F1000C0B28DF80200A84890F86F00392807DD9C
:101F2000A54890F86F003738C0B28DF8030006E07E
:101F3000A14890F86F003038C0B28DF803009DF8CA
:101F400003009DF8021000EB01109DF8011000EB5A
:101F500001209DF8001000EB013000B29A49888101
:101F600004209849C87279E07EE07CE004E0FFE755
:101F700001209449C87271E08F4890F866003928B2
:101F80006CD18D4890F86900582864D18A4890F83F
:101F90006C00392807DD884890F86C003738C0B2EB
:101FA0008DF8000006E0844890F86C003038C0B22C
:101FB0008DF80000804890F86D00392807DD7E48D4
:101FC00090F86D003738C0B28DF8010006E07A480D
:101FD00090F86D003038C0B28DF80100764890F866
:101FE0006E00392807DD744890F86E003738C0B2AB
:101FF0008DF8020006E0704890F86E003038C0B2EC
:102000008DF802006C4890F86F00392807DD6A48A7
:1020100090F86F003738C0B28DF8030006E06648CC
:1020200090F86F003038C0B28DF803009DF80300BF
:102030009DF8021000EB01109DF8011000EB01204B
:102040009DF8001000EB013000B25F4908820520C6
:102050005C49C87202E002205A49C87203E00320BA
:102060005849C87200BF00BF5848007B52287DD134
:10207000002056490873504890F8FB00032804D00C
:10208000052874D0102873D1FEE34B4890F8FD006A
:102090000E286ED101222146641C474896304254D6
:1020A00003222146641C425416222146641C4254D9
:1020B0004748008802122146641C3F48963042542B
:1020C000434802782146641C3B48963042544048BD
:1020D000408802122146641C3748963042543C48DE
:1020E00082782146641C34489630425438488088AF
:1020F00002122046611CCCB22F4996310A54344852
:1021000002792046611CCCB22B4996310A543048E2
:10211000C08802122046611CCCB2274996310A546D
:102120002B4882792046611CCCB2234996310A544F
:102130002748008902122046611CCCB21E49963104
:102140000A542348027A2046611CCCB21A499631BF
:102150000A5400222046611CCCB2174996310A5419
:102160002046611CCCB21449963103E0FEE33DE108
:10217000FDE364E00A541748008802122046611CFF
:10218000CCB20D4996310A54124802782046611C9F
:10219000CCB2094996310A540E48408802122046B2
:1021A000611CCCB2044996310A540A48827813E083
:1021B000681500201017002080150020180000204E
:1021C000190000203815002042170020501500206B
:1021D00058170020621700202046611CCCB2FC4931
:1021E0000A54FC48808802122046611CCCB2F8498F
:1021F0000A54F84802792046611CCCB2F4490A54CA
:10220000F448C08802122046611CCCB2F0490A543E
:10221000F04882792046611CCCB2ED490A54ED4861
:10222000008902122046611CCCB2E9490A54E948EF
:10223000027A2046611CCCB2E5490A54BCE0E4486D
:10224000963890F8FD000028F8D101222146641C40
:10225000DF48425403222146641C42541622214680
:10226000641C4254DC480088C0F307222146641CE9
:10227000D7484254D84802782146641CD448425476
:10228000D5484088C0F307222146641CD0484254F8
:10229000D14882782146641CCD484254CE4880887B
:1022A000C0F307222046611CCCB2C9490A54CA486F
:1022B00002792046611CCCB2C5490A54C648C08880
:1022C000C0F307222046611CCCB2C1490A54C2485F
:1022D00082792046611CCCB2BD490A54BE480089AF
:1022E000C0F307222046611CCCB2B9490A54BA484F
:1022F000027A2046611CCCB2B5490A54B6484089DE
:10230000C0F307222046611CCCB2B1490A54B2483E
:10231000827A2046611CCCB2AD490A54AE4880890D
:10232000C0F307222046611CCCB2A9490A54AA482E
:10233000027B2046611CCCB2A5490A54A648C0893C
:10234000C0F307222046611CCCB2A1490A54A2481E
:10235000827B2046611CCCB29D490A549E48008A6B
:10236000C0F307222046611CCCB299490A549A480E
:10237000027C2046611CCCB295490A549648408A9A
:1023800002122046611CCCB291490A549248827CC8
:102390002046611CCCB28E490A548F48808A0212B2
:1023A0002046611CCCB28A490A548B48027D2046E3
:1023B000611CCCB286490A5421468548FEF758FD77
:1023C000864802782046611CCCB281490A54844870
:1023D00002782046611CCCB27D490A548148848031
:1023E0004520804908747A4848614AE3784896381D
:1023F00090F8FD0090BB7648963890F8FE00FF28D4
:102400002DD1012078490870002073498882084640
:10241000808A40F0020088824FF496704882002043
:10242000724908707249C8727249C872724908606C
:102430007249C1F8AC01724908607249C1F8BC0127
:10244000714840884FF6FF7101EAC0006F4908806B
:102450006D48408800B26049C8804AE20FE0002021
:10246000614908705C4988820846808A40F0010012
:1024700088820020488288810882C88039E25448D6
:10248000963890F8FD0001280DD15148963890F803
:10249000FE00FF2803D100205D49086029E20120E9
:1024A0005B49086025E24A48963890F8FD0002280A
:1024B0000DD14748963890F8FE00FF2803D1002040
:1024C0005449086015E201205249086011E2404871
:1024D000963890F8FD0003280DD13D48963890F8C5
:1024E000FE00FF2803D100204B49086001E20120D3
:1024F00049490860FDE13648963890F8FD00042807
:1025000063D13348963890F8FE00FF285ED13648F4
:102510000078012841D13048007D00F008000828EB
:102520001DD139480088B0F57A7F0CDC3648008828
:1025300049F6404191FBF0F085B2681E81B2374800
:1025400002F070FA05E02825681E81B2334802F0D7
:1025500069FA2D48008800B21F49088127E01D480C
:102560000088B0F57A7F0CDC1A48008849F64041B3
:1025700091FBF0F085B2681E81B2284802F052FA51
:1025800005E02825681E81B2244802F04BFA114864
:10259000008800B21049088109E02825681E81B230
:1025A0001E4802F03FFA4FF47A700B49088105206B
:1025B00095FBF0F01FFA80F84146184802F036FA11
:1025C0000121164801F098FF93E131E028E0000076
:1025D0001616002062170020421700201800002065
:1025E00019000020501500200000002001000020EC
:1025F000381500206815002088012342000023427E
:10260000A801234200802242581700202000002009
:10261000BC812242B8812242B4812242000400409F
:102620000021F84801F068FF0020F749088160E1C7
:10263000F64890F8FD00062873D1F44890F8FE00A3
:10264000FF286ED1F248007801281BD1EE48007DAA
:1026500000F00800082815D10020EB4988820846C0
:10266000808A40F020008882EA4800894882002061
:10267000E9490870E94908604FF00100E849C1F8EC
:10268000840136E1E248007801280ED1DE48007D61
:1026900000F02000202808D10020DB49888208466D
:1026A000808A40F04000888223E1D94800780128E0
:1026B0000ED1D548007D00F00200022808D100208C
:1026C000D14988820846808A40F08000888210E1E3
:1026D000CD48808A00F48070B0F5807F0DD0CA4864
:1026E000808A00F40070B0F5007F06D0C648808A6A
:1026F00000F48060B0F5806F99D10020C2498882D3
:102700000846808A40F00100888200204882C04943
:102710000870C4490880BC4988810882C880E8E004
:10272000FFE7BA4890F8FD0008283CD1B74890F878
:10273000FE00FF2826D10020B34988820846808AFF
:1027400040F480708882B848808848820020B2496E
:1027500008700120AE4908700020B0490860B049F7
:10276000C1F8AC01C1F8A801AF4840884FF6FF712D
:1027700001EAC000AB490880AB48408800B2A249DA
:10278000C880B6E00020A04988820846808A40F0D0
:1027900001008882002048829D4908709A498881FA
:1027A0000882C880A5E0994890F8FD0009283CD12E
:1027B000964890F8FE00FF2826D100209249888292
:1027C0000846808A40F4007088829748C088488212
:1027D00000209149087001208D49087000208F4920
:1027E00008608F49C1F8AC01C1F8A8018E48408843
:1027F0004FF6FF7101EAC0008A4908808A48408884
:1028000000B28149C88074E000207F498882084670
:10281000808A40F001008882002048827C4908704C
:10282000794988810882C88063E0784890F8FD0083
:102830000A283ED1754890F8FE00FF2828D10020D4
:10284000714988820846808A40F480608882764890
:102850000089488200207049087001206C49087086
:1028600000206E4908606E49C1F8AC01C1F8A801AA
:102870006D4840884FF6FF7101EAC0006949088041
:102880006948408800B200E048E05F49C88030E015
:1028900000205D4988820846808A40F001008882D5
:1028A000002048825A490870574988810882C880A8
:1028B0001FE0564890F8FD000B281AD1534890F8B5
:1028C000FE00FF2815D100204F4988820846808AE3
:1028D00040F0080088824F488088488200204E4996
:1028E000087001204D4908604FF000004C49C1F8C4
:1028F00084014FF0000406E04448FA30015D64387A
:102900000155601CC4B2082CF6DB082047498880BA
:10291000452008743D4896304861B2E03B4890F845
:10292000FD000E2835D1394890F8021190F80101C8
:1029300001EB002037490880344890F8041190F8E2
:10294000030101EB002033494880304890F806111C
:1029500090F8050101EB00202E4988802B4890F863
:10296000081190F8070101EB002001E08AE087E000
:102970002849C880254890F80A1190F8090101EB10
:102980000020244908810A2200212948FEF796FBED
:1029900036E01E4890F8FD00142831D11B4890F80D
:1029A000021190F8010101EB00201F49088017482F
:1029B00090F8041190F8030101EB00201A494880B7
:1029C000124890F8061190F8050101EB0020164915
:1029D00088800E4890F8081190F8070101EB00205C
:1029E0001149C880094890F80A1190F8090101EBD3
:1029F00000200D4908810A2211460D48FEF75EFBB2
:102A000000241DE000040040421700208015002033
:102A100000000020581700200100002088012342F8
:102A200000002342200000206217002050150020E3
:102A300081160020F948015D64380155601CC4B25C
:102A4000062CF7DB2146F5486438FEF711FAF44806
:102A500002782046611CCCB2F04964390A54F1482E
:102A600002782046611CCCB2EC4964390A54EE4825
:102A700084804520EC490874E8486438486100E0E7
:102A800000BF00BFE948007B52287DD10020E74904
:102A90000873E248FA3890F89001801E06281AD28E
:102AA000DFE800F0031A314C627CDC48FA3890F819
:102AB000941190F8930101EB002087B24FF49670C7
:102AC00078434FF4FA6190FBF1F000B2D8490880E6
:102AD0000120D649C87279E0D048FA3890F89411AC
:102AE00090F8930101EB002087B24FF49670784381
:102AF0004FF4FA6190FBF1F000B2CD49488002201A
:102B0000CA49C87262E0C548FA3890F893010106D4
:102B1000C248FA3890F8940101EB0041BF48FA38F6
:102B200090F8950101EB0021BC48FA3890F8960125
:102B300001EB00090320BD49C87247E0B748FA38E5
:102B400090F8941190F8930101EB002006B26420F4
:102B500070434FF4FA6190FBF1F000B2B449888001
:102B60000420B249C87231E0AC48FA3890F89411A8
:102B700090F8930101EB002006B206EB860080007E
:102B8000C82190FBF1F000E021E0C0F1C80000B2E4
:102B9000A74948810520A549C87217E09F48FA381F
:102BA00090F8941190F8930101EB002006B206EB27
:102BB00086008000C82190FBF1F0C0F1C80000B28F
:102BC0009B49C88106209949C87200BF00BFBDE873
:102BD000F88F2DE9F04106460D46174600240222E3
:102BE0002146641C8D48FA38425430222146641C28
:102BF000425406F13000C2B22146641C8748FA38BC
:102C0000425430222146641C42542146641C4254E2
:102C1000002D45D158222146641C4254522221469F
:102C2000641C425444222046611CCCB27B49FA39D0
:102C30000A5430222046611CCCB27849FA390A5431
:102C400034222046611CCCB27449FA390A5442221B
:102C50002046611CCCB27149FA390A543722204609
:102C6000611CCCB26D49FA390A5430222046611CED
:102C7000CCB26A49FA390A542046611CCCB2674981
:102C8000FA390A542046611CCCB26449FA390A5414
:102C900031222046611CCCB26049FA390A5464E002
:102CA000012D62D178222146641C5C48FA384254D6
:102CB00057222146641C425444222046611CCCB257
:102CC0005649FA390A5430222046611CCCB2534985
:102CD000FA390A5435222046611CCCB24F49FA39E0
:102CE0000A5437222046611CCCB24C49FA390A54A6
:102CF00039222046611CCCB24849FA390A54DFB166
:102D000030222046611CCCB24449FA390A5431229F
:102D10002046611CCCB24149FA390A542046611C54
:102D2000CCB23E49FA390A5442222046611CCCB248
:102D30003A49FA390A5418E030222046611CCCB2D4
:102D40003649FA390A542046611CCCB23349FA3963
:102D50000A542046611CCCB23049FA390A54204644
:102D6000611CCCB22D49FA390A5403222046611C59
:102D7000CCB22A49FA390A5421462848FA38FEF7D3
:102D800090F82C4802782046611CCCB22349FA39CD
:102D90000A54294802782046611CCCB21F49FA39EE
:102DA0000A540D222046611CCCB21C49FA390A543F
:102DB0000A222046611CCCB21849FA390A5420462E
:102DC000BDE8F0812DE9F04105460E461746002486
:102DD000082D19D12EB900221146FFF7FAFE04463C
:102DE00075E0164938460BF05FFA06D1012211460C
:102DF0000820FFF7EEFE044669E0002201210820CA
:102E0000FFF7E7FE044662E0092D2CD1C6B9002287
:102E100011460920FFF7DDFE044658E07A1600202F
:102E2000180000201900002050150020681500200F
:102E3000421700201A0000201B0000206666E241B5
:102E4000864938460BF030FA06D101221146092096
:102E5000FFF7BFFE04463AE0002201210920FFF7F8
:102E6000B8FE044633E00A2D31D10A222146641C03
:102E70007B48425406222146641C425400222146CB
:102E8000641C425440222146641C425438460BF0D4
:102E90003FFAC0F307222146641C71484254384669
:102EA0000BF036FAC2B22146641C6D4842542146EA
:102EB000FDF7DEFF6B4802782146641C68484254E7
:102EC000694802782046611CCCB265490A546748BB
:102ED000007C30B9654884804520644908746048A6
:102EE0004861BDE8F08170B505460024022D17D178
:102EF00002222146641C5E48425403222146641C7F
:102F0000425400222146641C42542146641C42540F
:102F10002146641C425401222146641C425481E033
:102F2000032D16D103222146641C514842542146E8
:102F3000641C425400222146641C42542146641CF5
:102F400042542146641C425401222146641C4254CE
:102F500068E0042D19D104222146641C44484254DF
:102F600003222146641C425400222146641C425420
:102F700002222146641C425400222146641C425411
:102F800002222146641C42544CE0052D17D1052233
:102F90002146641C3648425403222146641C425494
:102FA00000222146641C42542146641C425421469E
:102FB000641C425401222146641C425432E0062D16
:102FC00017D106222146641C294842540322214677
:102FD000641C425400222146641C42542146641C55
:102FE00042542146641C425401222146641C42542E
:102FF00018E0072D16D107222146641C1C484254B4
:1030000003222146641C425400222146641C42547F
:103010002146641C42542146641C4254012221462C
:10302000641C425421461248FDF722FF0D480278E5
:103030002146641C0E4842540B4802782046611C0D
:10304000CCB20B490A540B48007C30B90948848043
:103050004520084908740648486170BD6666E2412B
:1030600080150020180000201900002038150020CD
:10307000AC16002068150020094880470948004721
:10308000FEE7FEE7FEE7FEE7FEE7FEE7FEE7FEE718
:10309000FEE7FEE704480549054A064B7047000075
:1030A000390D0008310100089837002098410020B0
:1030B000983900209839002031490143314A116084
:1030C000704770B5002100230F22C4780CB32D4C3B
:1030D000246804F4E064C4F5E064210AC1F1040347
:1030E000CA40447804FA03F184781440214309016A
:1030F000254C0678A155047804F01F050124AC4046
:1031000005786D114FF0E02606EB8505C5F8004106
:1031100009E0047804F01F050124AC401B4D06783B
:10312000761145F8264070BD194A0A400243154BF6
:103130001B1F1A60704739B1124A121D12680243F0
:10314000104B1B1D1A6006E00E4A121D12688243C6
:103150000C4B1B1D1A607047042808D14FF0E0216A
:10316000096941F004014FF0E022116107E04FF0DE
:10317000E021096921F004014FF0E022116170475C
:103180000000FA050CED00E000E400E080E100E062
:1031900080FFFF1F10B50446CA48844208D10121B0
:1031A000042000F02BFD0021042000F027FD46E064
:1031B000C548844208D10121082000F01FFD0021EC
:1031C000082000F01BFD3AE0C048844208D10121EC
:1031D000102000F013FD0021102000F00FFD2EE064
:1031E000BB48844208D10121202000F007FD0021C6
:1031F000202000F003FD22E0B648844208D10121DE
:10320000402000F0FBFC0021402000F0F7FC16E01D
:10321000B148844208D10121802000F0EFFC002158
:10322000802000F0EBFC0AE0AC48844207D1012189
:10323000801500F0E3FC0021A01500F0DFFC10BDBC
:1032400010B50121084600F0D9FC0021012000F052
:10325000D5FC10BD2DE9F0410246002500260020D6
:1032600000230024002791F803C00CF00F0591F80B
:1032700003C01CF0100F03D091F802C04CEA050502
:1032800091F800C0BCF1000F31D0146800202BE091
:103290004FF0010C0CFA00F3B1F800C00CEA030681
:1032A0009E4220D183004FF00F0C0CFA03F7BC4371
:1032B00005FA03FC4CEA040491F803C0BCF1280FA2
:1032C00006D14FF0010C0CFA00FCC2F814C00AE061
:1032D00091F803C0BCF1480F05D14FF0010C0CFA76
:1032E00000FCC2F810C0401C0828D1D31460B1F80B
:1032F00000C0BCF1FF0F34DD546800202EE000F167
:10330000080C4FF0010808FA0CF3B1F800C00CEA01
:1033100003069E4221D183004FF00F0C0CFA03F7F5
:10332000BC4305FA03FC4CEA040491F803C0BCF169
:10333000280F05D100F1080C08FA0CF8C2F8148027
:1033400091F803C0BCF1480F07D100F1080C4FF011
:10335000010808FA0CF8C2F81080401C0828CED3E7
:103360005460BDE8F0814FF6FF7101800221817049
:103370000421C17070470246002093680B4201D0BF
:10338000012000E0002070470146886880B2704745
:1033900002460020D3680B4201D0012000E000204B
:1033A00070470146C86880B270470161704741614B
:1033B00070470AB1016100E041617047C160704728
:1033C0004FF480320A43826181618261826982693D
:1033D000704702460020424B18684FF68073184031
:1033E00040EA021008433E4B186070473D49C861EF
:1033F0007047F0B50A46002300240021002500F0A4
:103400000046B6F1004F02D1354EF16901E0344E6D
:103410007168C0F3034583B200F44016B6F5401F4F
:1034200008D121F070612E4E766826F070662C4F20
:103430007E6012E000F48016B6F5801F06D10326E8
:1034400006FA05F4A14341F0706106E0460D36012D
:1034500003FA06F6B14341F0706122B1460D360120
:1034600003FA06F6314300F00046B6F1004F02D1F0
:103470001B4EF16101E01A4E7160F0BD30B50022C3
:103480008B071C0F0F2303FA04F2154B08338C1023
:1034900053F824309343124C08348D1044F82530EF
:1034A00023468C1053F824308C07240F00FA04F4C0
:1034B00023430B4C08348D1044F8253030BD0A49A5
:1034C0000860704700080140000C014000100140F6
:1034D0000014014000180140001C01400020014080
:1034E0000000014000002042DC00204210B50446EC
:1034F000FB48844209D10121880300F07FFB0021B1
:103500004FF4804000F07AFB32E0F648844209D163
:103510000121480400F07FFB00214FF4003000F04F
:103520007AFB25E0F048844209D10121880400F0AB
:1035300072FB00214FF4802000F06DFB18E0EB4897
:10354000844209D10121C80400F065FB00214FF439
:10355000002000F060FB0BE0E548844208D1012127
:10356000080500F058FB00214FF4801000F053FBD9
:1035700010BD2DE9F04786B005460E460024A24650
:1035800000BFA1460027B08900B100BF2F462C8A9A
:103590004CF6FF700440F08804432C82AC894EF650
:1035A000F3100440B088318908437189084304430B
:1035B000AC81AC8A4FF6FF400440B0890443AC8232
:1035C00001A800F094FAC648874202D1DDF810A0A5
:1035D00001E0DDF80CA0A88910F4004F08D00AEB38
:1035E000CA0000EB0A1031684900B0FBF1F807E0AF
:1035F0000AEBCA0000EB0A1031688900B0FBF1F851
:103600006420B8FBF0F004012009642101FB10895B
:10361000A88910F4004F08D0322000EBC900B0FB9D
:10362000F1F000F00700044308E0322000EB09103D
:103630006421B0FBF1F000F00F0004432C8106B0D0
:10364000BDE8F0874FF41651016000218180C180F0
:1036500001810C21418100218181704710B5024612
:103660000020108A4FF2FF0318400B884C88234338
:103670008C882343CC8823431843108210BD00213B
:10368000018041808180C180704721B1828942F4EC
:103690000052828104E082894DF6FF731A408281D4
:1036A0007047F0B503460024002600250020A1F550
:1036B00010676A3F00D100BF1846C1F3421401F001
:1036C0001F06012707FA06F5012C01D10C3004E092
:1036D000022C01D1103000E014301AB107682F43DA
:1036E000076002E00768AF430760F0BD1AB1838A44
:1036F0000B43838202E0838A8B4383827047028A72
:103700004FF6F0731A400282028A0A43028270471F
:1037100082894FF2FF731A40828182890A43828133
:10372000704721B1828942F00202828104E08289DD
:103730004FF6FD731A4082817047028A4FF6DF739D
:103740001A400282028A0A430282704721B1028A29
:1037500042F48042028204E0028A4BF6FF731A4070
:1037600002827047C1F30802828070470146888850
:10377000C0F308007047818941F0010181817047E1
:10378000028BD2B20283028B42EA0122028370478B
:10379000028B02F47F420283028B0A43028370474A
:1037A00021B1828A42F02002828204E0828A4FF6AE
:1037B000DF731A408282704721B1828A42F0100280
:1037C000828204E0828A4FF6EF731A408282704749
:1037D00021B1828A42F00802828204E0828A4FF696
:1037E000F7731A408282704721B1828942F4004205
:1037F000828103E08289C2F30E028281704721B187
:10380000828A42F40062828204E0828A4FF2FF736D
:103810001A4082827047828A4FF6FB731A40828276
:10382000828A0A438282704721B1828A42F0020270
:10383000828204E0828A4FF6FD731A4082827047CA
:1038400002460020B1F5007F00D100BF13880B4273
:1038500001D0012000E00020704701F40072B2F5B1
:10386000007F00D100BFCA430280704770B5024696
:103870000024002300250020A1F510666A3E00D137
:1038800000BFC1F3421501F01F03012606FA03F33E
:10389000012D02D19689334006E0022D02D1168A0D
:1038A000334001E0968A33400C12012606FA04F4F4
:1038B0001688344013B10CB1012000E0002070BD27
:1038C00010B500220023A1F510646A3C00D100BFAE
:1038D0000A1201249440A3B2DC43048010BD00000E
:1038E000003801400044004000480040004C0040C7
:1038F00000500040DD48006840F00100DB490860EE
:1039000008464068DA490840D849486008460068D7
:10391000D8490840D54908600846006820F480204E
:1039200008600846406820F4FE0048604FF41F001D
:1039300088607047CD49096821F48031CB4A116015
:103940001146096821F480211160B0F5803F03D051
:10395000B0F5802F0ED106E0C449096841F48031EA
:10396000C24A116007E0C149096841F4A021BF4A79
:10397000116000E000BF00BF704710B50146002293
:10398000002300204A11012A02D1B84C236806E026
:10399000022A02D1B54C236A01E0B44C636A01F0FB
:1039A0001F02012494401C4201D0012000E00020AD
:1039B00010BD38B5002000900024002500BF312044
:1039C000FFF7DBFF05460098401C00900098B0F51B
:1039D000A06F01D0002DF2D03120FFF7CEFF08B14B
:1039E000012400E00024204638BD014600209F4A03
:1039F000106820F0F80040EAC100106070479E494E
:103A00000860704702460020984B586820F47C10EC
:103A100042EA01031843954B58607047964908667F
:103A2000704701460020914A506820F00300084387
:103A3000506070478D48406800F00C0070470146A8
:103A400000208A4A506820F0F00008435060704718
:103A500001460020854A506820F4E0600843506029
:103A6000704701460020814A506820F4605040EAC7
:103A7000C1005060704729B17C4A527A02437B4BA7
:103A80005A7204E0794A527A8243784B5A727047EC
:103A90007A490860704701460020744A506820F453
:103AA00040400843506070470021754A11706F4ACA
:103AB00082F82010012802D0042808D103E0012157
:103AC0006F4A117004E005216D4A117000E000BFDB
:103AD00000BF70476B49086070476449096A014339
:103AE000624A11627047674944390860704730B5CF
:103AF00000210022002400235C4D6D6805F00C01BC
:103B000021B1042905D0082923D105E05E4D0560C7
:103B100022E05D4D05601FE0544D6D6805F47012A4
:103B2000524D6D6805F48034022505EB92421CB9B4
:103B3000564D554305600BE04C4D6D6815F4003F44
:103B400003D0524D5543056002E04F4D554305608B
:103B500002E04D4D056000BF00BF444D6D6805F0AB
:103B6000F00109094A4D6B5C0568DD4045603F4D39
:103B70006D6805F4E061090A454D6B5C4568DD4000
:103B800085603A4D6D6805F46051C90A404D6B5C23
:103B90004568DD40C560354D6D6805F44041890BD1
:103BA0003C4D6B5CC568B5FBF3F5056130BD29B1D3
:103BB0002E4A526902432D4B5A6104E02B4A526946
:103BC00082432A4B5A61704729B1284A92690243BD
:103BD000264B9A6104E0254A92698243234B9A61FD
:103BE000704729B1214AD2690243204BDA6104E0CF
:103BF0001E4AD26982431D4BDA61704729B11B4AC4
:103C0000D2680243194BDA6004E0184AD268824352
:103C1000164BDA60704729B1144A12690243134BFC
:103C20001A6104E0114A12698243104B1A6170470D
:103C300014494039086070470F49C86470470B4900
:103C4000C87170470948406A40F08070074948626F
:103C5000704701460020054A92680A4201D00120BF
:103C600000E0002070470149887270470010024050
:103C70000000FFF8FFFFF6FE00004242D80042427B
:103C8000201002408004424200127A0000093D00E8
:103C90002C0000203C00002010B50446FE48844261
:103CA00008D10121C014FFF7A9FF0021E014FFF79C
:103CB000A5FFC4E0B4F1804F08D101210846FFF709
:103CC000AAFF00210120FFF7A6FFB8E0F3488442D5
:103CD00008D101210220FFF79EFF00210220FFF7FB
:103CE0009AFFACE0EE48844208D101210420FFF79E
:103CF00092FF00210420FFF78EFFA0E0E9488442F4
:103D000008D101210820FFF786FF00210820FFF7D6
:103D100082FF94E0E448844208D101211020FFF79B
:103D20007AFF00211020FFF776FF88E0DF48844209
:103D300008D101212020FFF76EFF00212020FFF78E
:103D40006AFF7CE0DA48844208D101214014FFF781
:103D500055FF00216014FFF751FF70E0D548844201
:103D600009D10121C804FFF749FF00214FF40020C9
:103D7000FFF744FF63E0D048844209D101210805E0
:103D8000FFF73CFF00214FF48010FFF737FF56E0AC
:103D9000CA48844209D101214805FFF72FFF0021BD
:103DA0004FF40010FFF72AFF49E0C548844208D1CC
:103DB00001214020FFF72FFF00214020FFF72BFFBC
:103DC0003DE0C048844208D101218020FFF723FF55
:103DD00000218020FFF71FFF31E0BB48844208D15B
:103DE00001218015FFF717FF0021A015FFF713FF32
:103DF00025E0B648844209D101210804FFF7FEFE00
:103E000000214FF48030FFF7F9FE18E0B0488442FB
:103E100009D101214804FFF7F1FE00214FF40030E1
:103E2000FFF7ECFE0BE0AB48844208D10121880487
:103E3000FFF7E4FE00214FF48020FFF7DFFE10BD06
:103E400000220288944B98420ED0994B98420BD096
:103E5000B0F1804F08D0914B984205D0904B9842DA
:103E600002D0904B984204D14FF68F731A404B8882
:103E70001A438D4B984207D08C4B984204D04FF692
:103E8000FF431A40CB881A4302808B8883850B88B6
:103E90000385814B98420BD0854B984208D08B4BC1
:103EA000984205D08A4B984202D08A4B984201D161
:103EB0000B7A038601238382704770B500240022A9
:103EC0000023058C4FF6FE7635400584028C8388EE
:103ED000048B4FF68F752C40B51E2C400D882C435B
:103EE000751E2A400D892A434D882A436A4DA842EF
:103EF0000BD06F4DA84208D0744DA84205D0744D28
:103F0000A84202D0734DA84213D14FF6F7752A404C
:103F10004D892A434FF6FB752A408D882A434FF678
:103F2000FF652B404FF6FF552B408D892B43CD89E4
:103F30002B4383800483CD888586028470BD70B551
:103F4000002400220023058C4FF6EF7635400584CF
:103F5000028C8388048B48F6FF752C404FF6FF4592
:103F60002C400D884FF6FF7606EA05252C434FF6C8
:103F7000DF752A400D8906EA05152A434D8806EAB1
:103F800005152A43444DA84202D0494DA8421DD1EF
:103F90004FF67F752A404D894FF6FF7606EA0515E4
:103FA0002A434FF6BF752A408D8806EA05152A4335
:103FB0004FF6FF352B404FF2FF752B408D8906EAF7
:103FC00085052B43CD8906EA85052B438380048331
:103FD000CD880587028470BD70B5002400220023BF
:103FE000058C4FF6FF6635400584028C8388848BF0
:103FF0004FF68F752C404FF6FC752C400D882C43E6
:104000004FF6FF552A400D894FF6FF7606EA052543
:104010002A434D8806EA05252A431F4DA84202D0AF
:10402000234DA8421DD14FF2FF752A404D894FF60E
:10403000FF7606EA05252A434FF6FF352A408D888C
:1040400006EA05252A434EF6FF752B404DF6FF750F
:104050002B408D8906EA05152B43CD8906EA051507
:104060002B4383808483CD888587028470BD70B59F
:10407000002200230024058C4EF6FF76354005848F
:10408000038C8488828B48F6FF752A404FF6FF45E3
:104090002A400D8820E00000002C01400004004070
:1040A00000080040000C00400010004000140040D8
:1040B00000340140004C01400050014000540140D8
:1040C00000180040001C004000200040004001405B
:1040D00000440140004801404FF6FF7606EA0525FE
:1040E0002A434DF6FF752B400D8906EA05352B4313
:1040F0004D8806EA05352B43FA4DA84202D0FA4D09
:10410000A84208D14BF6FF752C408D894FF6FF76FB
:1041100006EA85152C4384808283CD88A0F8405020
:10412000038470BD828B4FF2FF331A408283828BEF
:104130004FF6FF7303EA01231A4382837047F0B5F9
:104140000C461546002200210026078C4EF6FF7C07
:1041500007EA0C070784828B018C4FF6FF7707EA8A
:10416000043640F6FF473A404FF6FF7707EA052747
:104170003A434FF6FF7707EA03373A43D94FB8423D
:104180000ED0D94FB8420BD0B0F1804F08D0D74FE6
:10419000B84205D0D64FB84202D0D64FB84206D169
:1041A0004DF6FF77394046F48057394305E047F62E
:1041B000FF57394044F48057394382830184F0BD6E
:1041C000828B4FF6F3731A408283828B0A43828379
:1041D0007047F0B50C461546002200210026078CDA
:1041E0004FF6FF6C07EA0C070784828B018C4FF6B1
:1041F000FF7707EA04264FF60C773A404FF6FF7731
:1042000007EA03172F433A43B64FB8420ED0B64FD2
:10421000B8420BD0B0F1804F08D0B44FB84205D0AF
:10422000B34FB84202D0B34FB84206D14FF6FF5752
:10423000394046F48077394305E04FF2FF57394063
:1042400044F48077394382830184F0BD028B4FF2BE
:10425000FF331A400283028B4FF6FF7303EA0123F8
:104260001A4302837047F0B50C4615460022002120
:104270000026078C4FF6EF7C07EA0C070784028BB9
:10428000018C4FF6FF7707EA041640F6FF473A40E5
:104290004FF6FF7707EA03373A434FF6FF7707EA0F
:1042A00005273A438F4FB8420ED08F4FB8420BD0FC
:1042B000B0F1804F08D08D4FB84205D08C4FB84236
:1042C00002D08C4FB84206D14FF6DF77394046F026
:1042D0001007394305E04FF65F77394044F0100787
:1042E000394302830184F0BD028B4FF6F3731A4009
:1042F0000283028B0A4302837047F0B50C461546D1
:1043000000220021068C4FF6FE773E400684028B89
:10431000018C4FF60C7632407E1C06EA03162E43C3
:104320003243704EB0420ED06F4EB0420BD0B0F15F
:10433000804F08D06D4EB04205D06D4EB04202D0D5
:104340006C4EB04206D14FF6FD76314044F0010686
:10435000314305E04FF6F576314044F00106314334
:1043600002830184F0BD70B505460C465D48854268
:104370000ED05D4885420BD0B5F1804F08D05B4828
:10438000854205D05A48854202D05A48854200D11C
:1043900000E000BF208850B92389A28861882846A0
:1043A000FFF7ABFFE1882846FFF79EFF25E0208856
:1043B00004280AD12389A28861882846FFF753FF81
:1043C000E1882846FFF742FF17E0208808280AD135
:1043D0002389A28861882846FFF7FBFEE1882846EA
:1043E000FFF7EEFE09E02389A28861882846FFF7DF
:1043F000A6FEE1882846FFF795FE70BD2DE9F04145
:1044000005460C4600260127608808B9022600E010
:104410000026A088012801D1022700E0012720887A
:10442000A0B92389A28861882846FFF766FFE18842
:104430002846FFF759FF23893A4631462846FFF7B9
:1044400012FFE1882846FFF701FF13E02389A288C5
:1044500061882846FFF707FFE1882846FFF7F6FE48
:1044600023893A4631462846FFF747FFE188284628
:10447000FFF73AFFBDE8F0810A884B881A438B8822
:104480001A43CB881A430B891A434B891A438B89E9
:104490001A43A0F8442070474FF6FF718180002135
:1044A0000180C180418001727047002101804180FC
:1044B0008180C180018141818181C181704700215A
:1044C00001804180012181800021C18001817047EC
:1044D0000021018041808180C180018141818181F1
:1044E00070470000002C01400034014000040040EF
:1044F00000080040000C004021B1028842F0010297
:10450000028004E002884FF6FE731A400280704772
:1045100031B1B0F8442042F40042A0F8442005E054
:10452000B0F84420C2F30E02A0F8442070471AB13C
:1045300083890B43838102E083898B4383817047A6
:104540008182704741EA0203A0F8483070471AB1EF
:1045500083890B43838102E083898B438381704786
:1045600001894FF6F8721140018170470A46002117
:1045700001894FF68F73194011430181704730B59F
:1045800004460D4629462046FFF7F0FF208940F0FB
:104590000700208130BD2DE9F04104460D46164646
:1045A0001F46602D06D13B46012231462046FFF7CB
:1045B0005AFE05E03B46012231462046FFF79DFEAC
:1045C00029462046FFF7D2FF208940F007002081CE
:1045D000BDE8F08130B50C4600210189C9B24FF623
:1045E000FF7505EA0325154325432943018130BDA5
:1045F0002DE9F04105460E461746984600244346ED
:104600003A4631462846FFF7E5FF2C894FF6F87009
:10461000044044F007044FF68F70044044F07004E7
:104620002C81BDE8F081F0B504460D4616461F46C4
:104630003B46324629462046FFF7CCFF208940F40E
:1046400080402081F0BD0185828270470A460021AA
:1046500001884FF68F731940114301807047F0B500
:104660000C4615461E460021002200230189028BBC
:10467000038C4FF6F877394021434FF6FC473A4018
:1046800040F201173A434FF6DD773B404FF6FF7794
:1046900007EA06172F433B43018102830384F0BDE1
:1046A0000A460021018B4FF68F7319401143018395
:1046B00070470A460021018B48F6FF7319404FF6F8
:1046C000FF7303EA02231943018370470A4600215E
:1046D000818B4FF68F7319401143818370470A46CF
:1046E0000021818B48F6FF7319404FF6FF7303EAF0
:1046F000022319438183704721B1028842F080026E
:10470000028004E002884FF67F731A4002807047EF
:1047100021B1828842F00402828004E082884FF650
:10472000FB731A408280704721B1828842F00802F0
:10473000828004E082884FF6F7731A4082807047C7
:1047400021B1828842F00102828004E082884FF623
:10475000FE731A40828070470A460021018B4FF693
:10476000F77319401143018370470A460021018BFA
:104770004FF2FF7319404FF6FF7303EA0223194308
:10478000018370470A460021818B4FF6F773194069
:104790001143818370470A460021818B4FF2FF73DA
:1047A00019404FF6FF7303EA0223194381837047D0
:1047B0000A460021018B4FF6FB7319401143018318
:1047C00070470A460021018B4FF6FF3319404FF620
:1047D000FF7303EA02231943018370470A4600214D
:1047E000818B4FF6FB7319401143818370470A4652
:1047F0000021818B4FF6FF3319404FF6FF7303EA18
:1048000002231943818370470A460021018B4FF62A
:104810007F7319401143018370470A460021018BC1
:10482000C1F30E014FF6FF7303EA0223194301831C
:1048300070470A460021818B4FF67F731940114360
:10484000818370470A460021818BC1F30E014FF628
:10485000FF7303EA02231943818370470A4600214C
:10486000018C4FF6FD7319401143018470470A46CD
:104870000021018C4FF6F7731940114301847047F2
:104880000A460021018C4FF6DF7319404FF6FF7383
:1048900003EA02131943018470470A460021018C80
:1048A0004FF67F7319404FF6FF7303EA0213194363
:1048B000018470470A460021018C4FF6FF531940CE
:1048C0004FF6FF7303EA02231943018470470A4637
:1048D0000021018C4FF2FF7319404FF6FF7303EA7A
:1048E00002231943018470470A460021018C4DF6CA
:1048F000FF7319404FF6FF7303EA02331943018433
:10490000704730B5002301248C40A3B2048C9C4333
:104910000484048C02FA01F5ADB22C43048430BD4A
:1049200030B5002304248C40A3B2048C9C4304843F
:10493000048C02FA01F5ADB22C43048430BD70B58D
:104940000346002000241846183001258D40ACB2E3
:104950001D8CA5431D8409B1082909D100EB610014
:10496000056825F0700505600568154305600EE0D3
:104970000D1FC5F34E052844056825F4E045056084
:1049800005684FF6FF7606EA02263543056070BDDE
:1049900021B1028842F00202028004E002884FF650
:1049A000FD731A400280704721B1028842F0040270
:1049B000028004E002884FF6FB731A4002807047C1
:1049C00021B1828842F08002828004E082884FF622
:1049D0007F731A408280704702884FF6F7731A403F
:1049E000028002880A430280704782884FF68F73E4
:1049F0001A40828082880A438280704702894FF67B
:104A0000F8731A40028102890A43028170470289C1
:104A10004FF67F731A40028102890A430281704770
:104A20008184704781857047818670470187704710
:104A300081877047A0F84010704702884FF6FF4307
:104A40001A40028002880A43028070470146888E1D
:104A500070470146088F70470146888F70470146AE
:104A6000B1F8400070470146888C70470146088DB8
:104A7000704702460020138A0B4201D0012000E05B
:104A800000207047CA430282704730B502460020BA
:104A900000230024158A05EA0103958905EA01042B
:104AA00013B10CB1012000E0002030BDCA430282E6
:104AB0007047000000B585B06846FFF718F8019808
:104AC00005B000BD10B5FFF7F5FF044617480068B4
:104AD00040F080701549086000201549486008467C
:104AE000006840F001000860204600F0B6F810BDF4
:104AF0000F49486870472DE9F0478246FFF7DAFF13
:104B00004FF0000980460B4A00234046494609F011
:104B1000A2FA064632460B465046002109F09BFA9F
:104B200004460D4620462946BDE8F087FCED00E02E
:104B3000001000E040420F0010B5002400BF00BF8D
:104B400000F056F9044600BF00BF1021A34800F052
:104B5000D6FA00BF00BF204600F04EF900BF00BFEC
:104B600010BD10B5FFF7E8FF10BD10B500209C493F
:104B70000860FFF7A7FF10BD10B5FFF7F6FFFFF7BE
:104B8000F0FF10BD00BFFEE770B505460C460026DD
:104B900014B900BFFFF7F6FF15B90A20208070BDD9
:104BA00000BF00BF00F024F9064600BF00BF10227E
:104BB0008A49284600F05AFF00BF00BF304600F087
:104BC0001BF900BF00BF0020208000BFE7E72DE9F0
:104BD000F04105460C46002714B900BFFFF7D2FF8D
:104BE0001DB90A202080BDE8F0811021284600F080
:104BF00025FF0646102E15D200BF00BF00F0F8F8C2
:104C0000074600BF00BF10222946744800F02EFF5F
:104C100000BF00BF384600F0EFF800BF00BF002023
:104C2000208002E04FF47A70208000BFDBE710B5EF
:104C3000FFF75EFF0446204610BD704700B50146F1
:104C400011B900BFFFF79EFF654A106808B1002246
:104C500001E04FF4FA620A8000BD614908607047C4
:104C600070B50546284600F0CEF80446183C2046AC
:104C700070BD70B50546284600F0C5F80446103CE6
:104C8000204670BD70B50546284600F0BCF80446C5
:104C900000BF204670BD30B502460B464FF0FF35D1
:104CA0004FF00004AD1A9C4127D24FF0FF352C0C79
:104CB000AD1A9C410FD24FF0FF352C0AAD1A9C4122
:104CC00003D2190E474C605C45E0190C454C645CFE
:104CD00004F108003FE04FF0FF35FF24AD1A9C417E
:104CE00005D2190A3F4C645C04F1100033E0194608
:104CF0003C4C645C04F118002DE04FF6FF75002475
:104D0000AD1A9C4115D26FF07F450024AD1A9C412D
:104D100007D2140E44EA0321324C645C04F12000F3
:104D200019E0140C44EA03412E4C645C04F12800A1
:104D300011E0FF250024AD1A9C4107D2140A44EA71
:104D40000361284C645C04F1300004E01146254CFA
:104D5000645C04F1380030BD70B504460CB908201D
:104D600070BD204600F052F805462846F8E770B5B9
:104D700004460CB9102070BD204600F047F80546E7
:104D80002846F8E770B504460CB9202070BD2046CF
:104D900000F03CF805462846F8E72DE9F0430446C4
:104DA0000D464FF0000184EA010085EA0101084345
:104DB00002D14020BDE8F083E243E843521C40F1B9
:104DC000000102EA040601EA050730463946FFF70A
:104DD00062FF8046C8F13F094846EBE76C170020A8
:104DE0004000002004E6000872B6704762B67047C3
:104DF000EFF3108072B6704780F31088704730BFB1
:104E0000704720BF7047B0FA80F0704790FAA0F06A
:104E1000B0FA80F0704790FAA0F07047014641293F
:104E200003DB5A2901DC012200E00022012A08D01C
:104E3000612903DB7A2901DC012200E00022012A3A
:104E400001D1012200E000221046704701464129AD
:104E500003DB5A2901DC012200E00022012A08D0EC
:104E6000612903DB7A2901DC012200E00022012A0A
:104E700001D1012200E00022012A08D0302903DB01
:104E8000392901DC012200E00022012A01D101229E
:104E900000E00022104670470146612903DB7A29B1
:104EA00001DC012200E00022104670470146412942
:104EB00003DB5A2901DC012200E000221046704782
:104EC0000146302903DB392901DC012200E0002200
:104ED000104670470146302903DB372901DC0122E7
:104EE00000E00022104670470146302901DB3929D5
:104EF00007DD412901DB462903DD612903DB662942
:104F000001DC012200E00022104670470146202902
:104F100001D0092901D1012200E00022104670478A
:104F20000146202909D00D2907D00A2905D00C29CE
:104F300003D0092901D00B2901D1012200E0002270
:104F4000104670470146202903DB7E2901DC01223F
:104F500000E00022104670470146212903DB7E292C
:104F600001DC012200E000221046704701462029A2
:104F700003DB7E2901DC012200E00022012A35D179
:104F8000202909D00D2907D00A2905D00C2903D0E2
:104F9000092901D00B2901D1012200E000222ABBFE
:104FA000412903DB5A2901DC012200E00022012A09
:104FB00008D0612903DB7A2901DC012200E000220C
:104FC000012A01D1012200E00022012A08D0302963
:104FD00003DB392901DC012200E00022012A01D192
:104FE000012200E000220AB9012200E0002210465E
:104FF000704701464AB2002A01DB1F2901DD7F29E3
:1050000001D1012200E000221046704701464129EB
:1050100003DB5A2901DC012200E00022012A02D12F
:1050200001F1200200E00A46D0B270470146612932
:1050300003DB7A2901DC012200E00022012A02D1EF
:10504000A1F1200200E00A46D0B27047F0B5044654
:105050000B462046FFF7EAFF05461846FFF7E6FF36
:105060000646B54201D1012000E00020074638463F
:10507000F0BD0000FC48FD4901600146416000218F
:105080008160C160016141618161C161016201634F
:10509000C1624162F6498163C1634FF4806101647A
:1050A00041640146F34A116070472DE9F04105461D
:1050B0000B4694460027002402E03F021F43641C75
:1050C000042CFAD3604605F00306294646B134465F
:1050D00003E001F8013B401E641C08B1042CF8D326
:1050E0000A4601E080C2001F0428FBD2114602E0FC
:1050F00001F8013B401E0028FAD1BDE8F08130B52F
:1051000005460C46224600212846FFF7CEFF30BD5B
:105110002DE9F04F85B007468846914646463D4604
:10512000AE4207D94A464146384601F01DF905B05E
:10513000BDE8F08F4C4607EB0900451E08EB09005F
:10514000461EA81B04900498042834D305F00300DD
:10515000029006F003010191DDE90110884201D1BE
:10516000012000E0002000900098012823D102983F
:10517000032810D0029840B2039008E016F8010905
:1051800005F80109641E0398401E40B2039014B153
:1051900003980028F2DAA5F1030AA6F1030B04E054
:1051A0005BF804094AF80409241F042CF8D20AF118
:1051B00003050BF1030604E016F8010905F80109DF
:1051C000641E002CF8D100BFB1E72DE9F84F8046EE
:1051D0008946154615B90120BDE8F88FB8F1000FD2
:1051E00001D10020F8E7B9F1000F01D10020F3E769
:1051F0000124294608EB050209EB050302F0030C24
:1052000003F0030BDC4501D1012000E000200090F9
:105210000098012829D1BCF1000F12D0E2460AE023
:10522000521E5B1E107893F800E0704500D00024F9
:10523000491EAAF1010A012C03D111B1BAF1000FE4
:10524000EED1012C11D116461F4608E0361F3F1F34
:105250003068D7F800E0704500D00024091F012C09
:1052600001D10429F2D232463B4608E0521E5B1EB1
:10527000107893F800E0704500D00024491E012CFE
:1052800001D10029F2D12046A6E7F0B503460E462B
:105290001546D96BB1FBF5F005FB101CBCF1000FF6
:1052A00002D0A5EB0C0200E000229419586CA04239
:1052B00001D20020F0BD0F191144DF63586C001BB0
:1052C00058640846F6E72DE9F04106460F46B6FB5E
:1052D000F3FC03FB1C6109B15C1A00E00024B2FB83
:1052E000F3FC03FB1C2109B15D1A00E0002502EB71
:1052F0000508A7F1010C08FB0C4C0CEB0200BDE803
:10530000F0812DE9FE4F8046894614461E46002056
:1053100000900CB901AC00BF00202060524F00BFCC
:1053200000BFFFF765FD009000BF00BFF86B029063
:10533000D7F844B04B46424601210298FFF7C3FF1D
:1053400005465D450FD900BF00BF0098FFF754FD2B
:1053500000BF00BFA5EB0B00206042F2E27030807E
:105360000020BDE8FE8F4A4641463846FFF78DFFD4
:105370008246BAF1000F0CD100BF00BF0098FFF7C2
:105380003BFD00BF00BF256042F2E270308000208C
:10539000E7E700BF00BF0098FFF72EFD00BF00BF8A
:1053A00042F2107030805046DBE72DE9FC5F074683
:1053B0000C4690460020009000BF00BFFFF718FD8C
:1053C000009000BF00BFD7F80490D9F8380008B1AA
:1053D000484600E024488246DAF84450DAF83CB007
:1053E00000BF00BF0098FFF707FD00BF00BF012C02
:1053F0000AD9BBFBF4F004FB10B60EB1A01B00E011
:105400000020019001982D1A42F21070A8F80000B7
:105410002846BDE8FC9F70B504460D462A46214645
:105420001148FFF7C2FF0646304670BD18B942F278
:1054300011720A807047104A026000224260826046
:10544000C260026142618261C26102628262426341
:105450000263C26242628263C2630264426442F2D5
:1054600010720A8000BFE5E77C17002048454150D4
:10547000C4170020440000204E4F4E452DE9FF4F39
:1054800091B00446DDE9208900200090B8F1000FBA
:1054900002D10DF1180800BF0020C8F800004946ED
:1054A0002046FFF7C3FFB9F80000A0F51C511039E2
:1054B00002D015B0BDE8F08FFE48006820B942F276
:1054C000E770A9F80000F4E7DFF8ECA300200590EE
:1054D00000BF00BFFFF78CFC009000BF00BF129818
:1054E00080BB5546AB462E46DAF83C000D900423AF
:1054F0001A4614990D98FFF7E6FE049004990D984A
:1055000008440C90DDE91E2314990C98FFF7DBFE8C
:105510000390DDE9030108440590DAF8447005982A
:10552000B8427DD900BF00BF0098FFF765FC00BFFF
:1055300000BF0598C01BC8F8000042F2E270A9F84D
:105540000000B6E7FFE712980B90DDE9120108446E
:10555000401E0A900025AB46D64806683BE0B16B7A
:105560001298814205D1316C1398814201D13546A0
:1055700033E0B06B0990316CB06B0844401E08906A
:10558000DDE90901814200D227E009990B988842A0
:1055900003D8DDE9091088420FD209990B98884297
:1055A00003D308990A98884207D908990B9888422A
:1055B0000FD808990A9888420BD300BF00BF009803
:1055C000FFF71AFC00BF00BF42F27F70A9F800008D
:1055D0006FE7B346F668002EC1D100BF45B9254636
:1055E0001298A0631298E063139820641398606483
:1055F000DAF83C000D9004231A4614990D98FFF731
:1056000062FE0490DAF844700498B84211D900BFE1
:1056100000BF0098FFF7F0FB00BF00BF049800E058
:1056200024E0C01BC8F8000042F2E270A9F80000B4
:105630003FE7E86B0C90DDE91E2314990C98FFF707
:1056400042FE03906F6C0398B8420FD900BF00BFB1
:105650000098FFF7D1FB00BF00BF0398C01BC8F83C
:10566000000042F2D870A9F8000022E714988000E8
:105670000290042250460299FFF707FE0F900F9800
:1056800030BBDAF8447000BF00BF0098FFF7B4FBEE
:1056900000BF00BF129858B90598B84204D90598C0
:1056A000C01BC8F800000EE00598C8F800000AE02A
:1056B0000298B84204D90298C01BC8F8000002E062
:1056C0000298C8F8000042F2E270A9F80000F0E683
:1056D0000020019034E02846DDE91E12FFF7D5FDD9
:1056E0000E900E9820BBE86B0C906F6C00BF00BF53
:1056F0000098FFF781FB00BF00BF01991498401A82
:105700000790DDE91E2307990C98FFF7DCFD059053
:105710000598B84204D90598C01BC8F8000002E0FB
:105720000598C8F8000042F2D870A9F80000C0E659
:10573000019ADDE90E0141F822000198401C019018
:10574000149901988842C6D3A5420DD1C4F808B077
:10575000E660BBF1000F02D0CBF80C4001E05548E9
:1057600004605EB1B46009E068691090256110982A
:1057700060616C61109808B1109804614F48206016
:1057800065600C98A06103990C980844401EE06184
:105790000F9820620398A0621F9860631E98206390
:1057A0001498E0621498606200BF00BF0098FFF791
:1057B00023FB00BF00BF42F21070A9F8000000BF39
:1057C00077E62DE9F04104460D46002700BF00BFF3
:1057D000FFF70EFB074600BF00BF666A00BF00BFB1
:1057E0003846FFF709FB00BF00BF42F21070288067
:1057F0003046BDE8F0812DE9F04104468846154663
:10580000002700BF00BFFFF7F3FA074600BF00BF45
:10581000606A60B900BF00BF3846FFF7EDFA00BF0D
:1058200000BF42F2DE7028800020BDE8F081E16A0E
:10583000606A88420BD900BF00BF3846FFF7DCFA28
:1058400000BF00BF42F2957028800020EDE7606A3B
:10585000401E6062D4E9080150F8216000BF00BF1B
:105860003846FFF7C9FA00BF00BF42F21070288027
:105870003046DAE72DE9F04704460F4615464FF06B
:10588000000900BF00BFFFF7B3FA814600BF00BFA9
:10589000E06AC01B461EE06AB04213D800BF00BFDA
:1058A0004846FFF7A9FA00BF00BF42F29570288072
:1058B000002005E0440000207C170020504F4F4C92
:1058C000BDE8F087606AB0420BD900BF00BF484610
:1058D000FFF792FA00BF00BF42F2957028800020C7
:1058E000E7E7206A50F8268000BF00BF4846FFF770
:1058F00083FA00BF00BF42F2107028804046D8E70C
:105900002DE9F04704460E4617464FF0000A00BF47
:1059100000BFFFF76DFA824600BF00BFE16A606A10
:1059200088420BD300BF00BF5046FFF765FA00BFA7
:1059300000BF42F2DD703880BDE8F0874FF000080C
:10594000656A08E0206A50F82590B14502D14FF011
:10595000010803E06D1CE06AA842F3D800BFB8F16B
:10596000010F06D1D4E9080150F82100216A41F85D
:105970002500D4E9080140F82160606A401C60629B
:1059800000BF00BF5046FFF737FA00BF00BF42F22A
:105990001070388000BFCFE72DE9F84F04460F465E
:1059A0001646002000904FF0FF3B00BF00BFFFF7FE
:1059B0001FFA009000BF00BFE16A606A88420CD302
:1059C00000BF00BF0098FFF717FA00BF00BF42F208
:1059D000DD7030805846BDE8F88F4FF00009656AE9
:1059E00008E0206A50F82580B84502D14FF001093F
:1059F00003E06D1CE06AA842F3D800BFB9F1010FC3
:105A00000FD1E06A401EA0EB050A00BF00BF00985E
:105A1000FFF7F2F900BF00BF42F21070308050462D
:105A2000D9E700BF00BF0098FFF7E6F900BF00BF4D
:105A300042F2887030805846CDE7000010B502462B
:105A40000B461146002001E0491C401C19B10C789E
:105A50000CB19842F8D310BD30B504464FF0FF3179
:105A60002046FFF7EBFF0546284630BD70B50446DB
:105A70000D4616460CB9002070BD0DB90020FBE79D
:105A800021462A46002304E010780870491C521C65
:105A90005B1C21B11AB1107808B1B342F4D301B143
:105AA0000AB90020E8E7B34201D20020087020467E
:105AB000E2E770B504460D464FF0FF322946204616
:105AC000FFF7D4FF0646304670BD70B503460C465E
:105AD00015460BB9002070BD0CB90020FBE70DB9CD
